{
  "contractName": "CertificateStore",
  "abi": [
    {
      "constant": true,
      "inputs": [
        {
          "name": "",
          "type": "uint256"
        }
      ],
      "name": "certificates",
      "outputs": [
        {
          "name": "name",
          "type": "string"
        },
        {
          "name": "organization",
          "type": "string"
        },
        {
          "name": "certificateFor",
          "type": "string"
        },
        {
          "name": "assignedDate",
          "type": "uint256"
        },
        {
          "name": "expireDate",
          "type": "uint256"
        },
        {
          "name": "email",
          "type": "string"
        },
        {
          "name": "certificateId",
          "type": "string"
        }
      ],
      "payable": false,
      "stateMutability": "view",
      "type": "function"
    },
    {
      "constant": false,
      "inputs": [
        {
          "name": "_name",
          "type": "string"
        },
        {
          "name": "_organization",
          "type": "string"
        },
        {
          "name": "_certificateFor",
          "type": "string"
        },
        {
          "name": "_assignedDate",
          "type": "uint256"
        },
        {
          "name": "_expireDate",
          "type": "uint256"
        },
        {
          "name": "_email",
          "type": "string"
        },
        {
          "name": "_certificateId",
          "type": "string"
        }
      ],
      "name": "addCertificate",
      "outputs": [],
      "payable": false,
      "stateMutability": "nonpayable",
      "type": "function"
    },
    {
      "constant": true,
      "inputs": [],
      "name": "getCertificateCount",
      "outputs": [
        {
          "name": "",
          "type": "uint256"
        }
      ],
      "payable": false,
      "stateMutability": "view",
      "type": "function"
    },
    {
      "constant": true,
      "inputs": [
        {
          "name": "_certificateId",
          "type": "string"
        }
      ],
      "name": "getCertificateIndex",
      "outputs": [
        {
          "name": "",
          "type": "uint256"
        }
      ],
      "payable": false,
      "stateMutability": "view",
      "type": "function"
    },
    {
      "constant": true,
      "inputs": [
        {
          "name": "_certificateId",
          "type": "string"
        }
      ],
      "name": "getCertificateData",
      "outputs": [
        {
          "name": "name",
          "type": "string"
        },
        {
          "name": "organization",
          "type": "string"
        },
        {
          "name": "certificateFor",
          "type": "string"
        },
        {
          "name": "assignedDate",
          "type": "uint256"
        },
        {
          "name": "expireDate",
          "type": "uint256"
        },
        {
          "name": "email",
          "type": "string"
        },
        {
          "name": "certificateId",
          "type": "string"
        }
      ],
      "payable": false,
      "stateMutability": "view",
      "type": "function"
    }
  ],
  "bytecode": "0x608060405234801561001057600080fd5b506114b2806100206000396000f3fe608060405260043610610067576000357c010000000000000000000000000000000000000000000000000000000090048063261035661461006c57806362e1a0fb1461036b578063663b3e22146106a35780637eba4809146109155780638809f727146109f1575b600080fd5b34801561007857600080fd5b506101326004803603602081101561008f57600080fd5b81019080803590602001906401000000008111156100ac57600080fd5b8201836020820111156100be57600080fd5b803590602001918460018302840111640100000000831117156100e057600080fd5b91908080601f016020809104026020016040519081016040528093929190818152602001838380828437600081840152601f19601f820116905080830192505050505050509192919290505050610a1c565b60405180806020018060200180602001888152602001878152602001806020018060200186810386528d818151815260200191508051906020019080838360005b8381101561018e578082015181840152602081019050610173565b50505050905090810190601f1680156101bb5780820380516001836020036101000a031916815260200191505b5086810385528c818151815260200191508051906020019080838360005b838110156101f45780820151818401526020810190506101d9565b50505050905090810190601f1680156102215780820380516001836020036101000a031916815260200191505b5086810384528b818151815260200191508051906020019080838360005b8381101561025a57808201518184015260208101905061023f565b50505050905090810190601f1680156102875780820380516001836020036101000a031916815260200191505b50868103835288818151815260200191508051906020019080838360005b838110156102c05780820151818401526020810190506102a5565b50505050905090810190601f1680156102ed5780820380516001836020036101000a031916815260200191505b50868103825287818151815260200191508051906020019080838360005b8381101561032657808201518184015260208101905061030b565b50505050905090810190601f1680156103535780820380516001836020036101000a031916815260200191505b509c5050505050505050505050505060405180910390f35b34801561037757600080fd5b506106a1600480360360e081101561038e57600080fd5b81019080803590602001906401000000008111156103ab57600080fd5b8201836020820111156103bd57600080fd5b803590602001918460018302840111640100000000831117156103df57600080fd5b91908080601f016020809104026020016040519081016040528093929190818152602001838380828437600081840152601f19601f8201169050808301925050505050505091929192908035906020019064010000000081111561044257600080fd5b82018360208201111561045457600080fd5b8035906020019184600183028401116401000000008311171561047657600080fd5b91908080601f016020809104026020016040519081016040528093929190818152602001838380828437600081840152601f19601f820116905080830192505050505050509192919290803590602001906401000000008111156104d957600080fd5b8201836020820111156104eb57600080fd5b8035906020019184600183028401116401000000008311171561050d57600080fd5b91908080601f016020809104026020016040519081016040528093929190818152602001838380828437600081840152601f19601f82011690508083019250505050505050919291929080359060200190929190803590602001909291908035906020019064010000000081111561058457600080fd5b82018360208201111561059657600080fd5b803590602001918460018302840111640100000000831117156105b857600080fd5b91908080601f016020809104026020016040519081016040528093929190818152602001838380828437600081840152601f19601f8201169050808301925050505050505091929192908035906020019064010000000081111561061b57600080fd5b82018360208201111561062d57600080fd5b8035906020019184600183028401116401000000008311171561064f57600080fd5b91908080601f016020809104026020016040519081016040528093929190818152602001838380828437600081840152601f19601f820116905080830192505050505050509192919290505050610e6d565b005b3480156106af57600080fd5b506106dc600480360360208110156106c657600080fd5b8101908080359060200190929190505050610f7f565b60405180806020018060200180602001888152602001878152602001806020018060200186810386528d818151815260200191508051906020019080838360005b8381101561073857808201518184015260208101905061071d565b50505050905090810190601f1680156107655780820380516001836020036101000a031916815260200191505b5086810385528c818151815260200191508051906020019080838360005b8381101561079e578082015181840152602081019050610783565b50505050905090810190601f1680156107cb5780820380516001836020036101000a031916815260200191505b5086810384528b818151815260200191508051906020019080838360005b838110156108045780820151818401526020810190506107e9565b50505050905090810190601f1680156108315780820380516001836020036101000a031916815260200191505b50868103835288818151815260200191508051906020019080838360005b8381101561086a57808201518184015260208101905061084f565b50505050905090810190601f1680156108975780820380516001836020036101000a031916815260200191505b50868103825287818151815260200191508051906020019080838360005b838110156108d05780820151818401526020810190506108b5565b50505050905090810190601f1680156108fd5780820380516001836020036101000a031916815260200191505b509c5050505050505050505050505060405180910390f35b34801561092157600080fd5b506109db6004803603602081101561093857600080fd5b810190808035906020019064010000000081111561095557600080fd5b82018360208201111561096757600080fd5b8035906020019184600183028401116401000000008311171561098957600080fd5b91908080601f016020809104026020016040519081016040528093929190818152602001838380828437600081840152601f19601f8201169050808301925050505050505091929192905050506112c8565b6040518082815260200191505060405180910390f35b3480156109fd57600080fd5b50610a06611397565b6040518082815260200191505060405180910390f35b60608060606000806060806000610a32896112c8565b9050600081111515610aac576040517f08c379a00000000000000000000000000000000000000000000000000000000081526004018080602001828103825260158152602001807f4365727469666963617465206e6f7420666f756e64000000000000000000000081525060200191505060405180910390fd5b610ab46113a3565b600060018303815481101515610ac657fe5b906000526020600020906007020160e06040519081016040529081600082018054600181600116156101000203166002900480601f016020809104026020016040519081016040528092919081815260200182805460018160011615610100020316600290048015610b795780601f10610b4e57610100808354040283529160200191610b79565b820191906000526020600020905b815481529060010190602001808311610b5c57829003601f168201915b50505050508152602001600182018054600181600116156101000203166002900480601f016020809104026020016040519081016040528092919081815260200182805460018160011615610100020316600290048015610c1b5780601f10610bf057610100808354040283529160200191610c1b565b820191906000526020600020905b815481529060010190602001808311610bfe57829003601f168201915b50505050508152602001600282018054600181600116156101000203166002900480601f016020809104026020016040519081016040528092919081815260200182805460018160011615610100020316600290048015610cbd5780601f10610c9257610100808354040283529160200191610cbd565b820191906000526020600020905b815481529060010190602001808311610ca057829003601f168201915b505050505081526020016003820154815260200160048201548152602001600582018054600181600116156101000203166002900480601f016020809104026020016040519081016040528092919081815260200182805460018160011615610100020316600290048015610d735780601f10610d4857610100808354040283529160200191610d73565b820191906000526020600020905b815481529060010190602001808311610d5657829003601f168201915b50505050508152602001600682018054600181600116156101000203166002900480601f016020809104026020016040519081016040528092919081815260200182805460018160011615610100020316600290048015610e155780601f10610dea57610100808354040283529160200191610e15565b820191906000526020600020905b815481529060010190602001808311610df857829003601f168201915b5050505050815250509050806000015181602001518260400151836060015184608001518560a001518660c0015186965085955084945081915080905098509850985098509850985098505050919395979092949650565b600060e06040519081016040528089815260200188815260200187815260200186815260200185815260200184815260200183815250908060018154018082558091505090600182039060005260206000209060070201600090919290919091506000820151816000019080519060200190610eea9291906113e1565b506020820151816001019080519060200190610f079291906113e1565b506040820151816002019080519060200190610f249291906113e1565b50606082015181600301556080820151816004015560a0820151816005019080519060200190610f559291906113e1565b5060c0820151816006019080519060200190610f729291906113e1565b5050505050505050505050565b600081815481101515610f8e57fe5b9060005260206000209060070201600091509050806000018054600181600116156101000203166002900480601f01602080910402602001604051908101604052809291908181526020018280546001816001161561010002031660029004801561103a5780601f1061100f5761010080835404028352916020019161103a565b820191906000526020600020905b81548152906001019060200180831161101d57829003601f168201915b505050505090806001018054600181600116156101000203166002900480601f0160208091040260200160405190810160405280929190818152602001828054600181600116156101000203166002900480156110d85780601f106110ad576101008083540402835291602001916110d8565b820191906000526020600020905b8154815290600101906020018083116110bb57829003601f168201915b505050505090806002018054600181600116156101000203166002900480601f0160208091040260200160405190810160405280929190818152602001828054600181600116156101000203166002900480156111765780601f1061114b57610100808354040283529160200191611176565b820191906000526020600020905b81548152906001019060200180831161115957829003601f168201915b505050505090806003015490806004015490806005018054600181600116156101000203166002900480601f0160208091040260200160405190810160405280929190818152602001828054600181600116156101000203166002900480156112205780601f106111f557610100808354040283529160200191611220565b820191906000526020600020905b81548152906001019060200180831161120357829003601f168201915b505050505090806006018054600181600116156101000203166002900480601f0160208091040260200160405190810160405280929190818152602001828054600181600116156101000203166002900480156112be5780601f10611293576101008083540402835291602001916112be565b820191906000526020600020905b8154815290600101906020018083116112a157829003601f168201915b5050505050905087565b600080600090505b60008054905081101561138c5782805190602001206000828154811015156112f457fe5b906000526020600020906007020160060160405180828054600181600116156101000203166002900480156113605780601f1061133e576101008083540402835291820191611360565b820191906000526020600020905b81548152906001019060200180831161134c575b50509150506040518091039020141561137f5760018101915050611392565b80806001019150506112d0565b50600090505b919050565b60008080549050905090565b60e060405190810160405280606081526020016060815260200160608152602001600081526020016000815260200160608152602001606081525090565b828054600181600116156101000203166002900490600052602060002090601f016020900481019282601f1061142257805160ff1916838001178555611450565b82800160010185558215611450579182015b8281111561144f578251825591602001919060010190611434565b5b50905061145d9190611461565b5090565b61148391905b8082111561147f576000816000905550600101611467565b5090565b9056fea165627a7a723058206c49db9fc3f7405ebb773d4509827eff77180098896d603e7c6f455cd992d2e00029",
  "source": "// SPDX-License-Identifier: UNLICENSED\r\npragma solidity >=0.4.22 <0.9.0;\r\n\r\ncontract CertificateStore {\r\n    struct Certificate {\r\n        string name;\r\n        string organization;\r\n        string certificateFor;\r\n        uint256 assignedDate;\r\n        uint256 expireDate;\r\n        string email;\r\n        string certificateId;\r\n    }\r\n\r\n    Certificate[] public certificates;\r\n\r\n    function addCertificate(\r\n        string memory _name,\r\n        string memory _organization,\r\n        string memory _certificateFor,\r\n        uint256 _assignedDate,\r\n        uint256 _expireDate,\r\n        string memory _email,\r\n        string memory _certificateId\r\n    ) public {\r\n        certificates.push(Certificate(_name, _organization, _certificateFor, _assignedDate, _expireDate, _email, _certificateId));\r\n    }\r\n\r\n    function getCertificateCount() public view returns (uint256) {\r\n        return certificates.length;\r\n    }\r\n\r\n        function getCertificateIndex(string memory _certificateId) public view returns (uint256) {\r\n        for (uint256 i = 0; i < certificates.length; i++) {\r\n            if (keccak256(bytes(certificates[i].certificateId)) == keccak256(bytes(_certificateId))) {\r\n                return i + 1; // Adding 1 to make the index 1-based instead of 0-based\r\n            }\r\n        }\r\n        return 0; // Return 0 if the certificate is not found\r\n    }\r\n\r\n    function getCertificateData(string memory _certificateId) public view returns (\r\n        string memory name,\r\n        string memory organization,\r\n        string memory certificateFor,\r\n        uint256 assignedDate,\r\n        uint256 expireDate,\r\n        string memory email,\r\n        string memory certificateId\r\n    ) {\r\n        uint256 index = getCertificateIndex(_certificateId);\r\n        require(index > 0, \"Certificate not found\");\r\n        \r\n        Certificate memory certificate = certificates[index - 1]; // Subtract 1 to convert 1-based index to 0-based index\r\n        return (\r\n            certificate.name,\r\n            certificate.organization,\r\n            certificate.certificateFor,\r\n            certificate.assignedDate,\r\n            certificate.expireDate,\r\n            certificate.email,\r\n            certificate.certificateId\r\n        );\r\n    }\r\n}",
  "sourcePath": "C:\\Documents\\Naman\\Final Sem Project\\code\\BlockchainIdentityVerficiation\\contracts\\CertificateStore.sol",
  "compiler": {
    "name": "solc",
    "version": "0.5.1+commit.c8a2cb62.Emscripten.clang"
  },
  "schemaVersion": "3.4.15",
  "updatedAt": "2023-09-12T08:19:59.443Z",
  "networkType": "ethereum",
  "devdoc": {
    "methods": {}
  },
  "userdoc": {
    "methods": {}
  }
}